{
  "_format": "hh3-artifact-1",
  "contractName": "AIJudge",
  "sourceName": "contracts/AIJudge.sol",
  "abi": [
    {
      "anonymous": false,
      "inputs": [
        {
          "indexed": true,
          "internalType": "uint256",
          "name": "bountyId",
          "type": "uint256"
        },
        {
          "indexed": true,
          "internalType": "address",
          "name": "submitter",
          "type": "address"
        },
        {
          "indexed": false,
          "internalType": "bool",
          "name": "valid",
          "type": "bool"
        }
      ],
      "name": "AnswerRevealed",
      "type": "event"
    },
    {
      "anonymous": false,
      "inputs": [
        {
          "indexed": true,
          "internalType": "uint256",
          "name": "bountyId",
          "type": "uint256"
        },
        {
          "indexed": true,
          "internalType": "address",
          "name": "owner",
          "type": "address"
        },
        {
          "indexed": false,
          "internalType": "uint256",
          "name": "reward",
          "type": "uint256"
        },
        {
          "indexed": false,
          "internalType": "uint256",
          "name": "commitDeadline",
          "type": "uint256"
        },
        {
          "indexed": false,
          "internalType": "uint256",
          "name": "revealDeadline",
          "type": "uint256"
        }
      ],
      "name": "BountyCreated",
      "type": "event"
    },
    {
      "anonymous": false,
      "inputs": [
        {
          "indexed": true,
          "internalType": "uint256",
          "name": "bountyId",
          "type": "uint256"
        },
        {
          "indexed": true,
          "internalType": "address",
          "name": "submitter",
          "type": "address"
        },
        {
          "indexed": false,
          "internalType": "bytes32",
          "name": "commitment",
          "type": "bytes32"
        }
      ],
      "name": "CommitmentSubmitted",
      "type": "event"
    },
    {
      "anonymous": false,
      "inputs": [
        {
          "indexed": true,
          "internalType": "uint256",
          "name": "bountyId",
          "type": "uint256"
        },
        {
          "indexed": false,
          "internalType": "bytes",
          "name": "aiReview",
          "type": "bytes"
        }
      ],
      "name": "Judged",
      "type": "event"
    },
    {
      "anonymous": false,
      "inputs": [
        {
          "indexed": true,
          "internalType": "uint256",
          "name": "bountyId",
          "type": "uint256"
        },
        {
          "indexed": true,
          "internalType": "address",
          "name": "winner",
          "type": "address"
        },
        {
          "indexed": false,
          "internalType": "uint256",
          "name": "winnerIndex",
          "type": "uint256"
        },
        {
          "indexed": false,
          "internalType": "uint256",
          "name": "reward",
          "type": "uint256"
        }
      ],
      "name": "WinnerFinalized",
      "type": "event"
    },
    {
      "inputs": [
        {
          "internalType": "uint256",
          "name": "",
          "type": "uint256"
        }
      ],
      "name": "bounties",
      "outputs": [
        {
          "internalType": "address",
          "name": "owner",
          "type": "address"
        },
        {
          "internalType": "string",
          "name": "title",
          "type": "string"
        },
        {
          "internalType": "string",
          "name": "description",
          "type": "string"
        },
        {
          "internalType": "uint256",
          "name": "reward",
          "type": "uint256"
        },
        {
          "internalType": "uint256",
          "name": "commitDeadline",
          "type": "uint256"
        },
        {
          "internalType": "uint256",
          "name": "revealDeadline",
          "type": "uint256"
        },
        {
          "internalType": "bool",
          "name": "judged",
          "type": "bool"
        },
        {
          "internalType": "bool",
          "name": "finalized",
          "type": "bool"
        },
        {
          "internalType": "address",
          "name": "winner",
          "type": "address"
        },
        {
          "internalType": "bytes",
          "name": "aiReview",
          "type": "bytes"
        },
        {
          "internalType": "uint256",
          "name": "winnerIndex",
          "type": "uint256"
        }
      ],
      "stateMutability": "view",
      "type": "function"
    },
    {
      "inputs": [
        {
          "internalType": "string",
          "name": "title",
          "type": "string"
        },
        {
          "internalType": "string",
          "name": "description",
          "type": "string"
        },
        {
          "internalType": "uint256",
          "name": "commitDeadline",
          "type": "uint256"
        },
        {
          "internalType": "uint256",
          "name": "revealDeadline",
          "type": "uint256"
        }
      ],
      "name": "createBounty",
      "outputs": [
        {
          "internalType": "uint256",
          "name": "bountyId",
          "type": "uint256"
        }
      ],
      "stateMutability": "payable",
      "type": "function"
    },
    {
      "inputs": [
        {
          "internalType": "uint256",
          "name": "bountyId",
          "type": "uint256"
        },
        {
          "internalType": "uint256",
          "name": "winnerIndex",
          "type": "uint256"
        }
      ],
      "name": "finalizeWinner",
      "outputs": [],
      "stateMutability": "nonpayable",
      "type": "function"
    },
    {
      "inputs": [
        {
          "internalType": "uint256",
          "name": "bountyId",
          "type": "uint256"
        }
      ],
      "name": "getBatchJudgingPrompt",
      "outputs": [
        {
          "internalType": "string",
          "name": "",
          "type": "string"
        }
      ],
      "stateMutability": "view",
      "type": "function"
    },
    {
      "inputs": [
        {
          "internalType": "uint256",
          "name": "bountyId",
          "type": "uint256"
        }
      ],
      "name": "getBounty",
      "outputs": [
        {
          "components": [
            {
              "internalType": "address",
              "name": "owner",
              "type": "address"
            },
            {
              "internalType": "string",
              "name": "title",
              "type": "string"
            },
            {
              "internalType": "string",
              "name": "description",
              "type": "string"
            },
            {
              "internalType": "uint256",
              "name": "reward",
              "type": "uint256"
            },
            {
              "internalType": "uint256",
              "name": "commitDeadline",
              "type": "uint256"
            },
            {
              "internalType": "uint256",
              "name": "revealDeadline",
              "type": "uint256"
            },
            {
              "internalType": "bool",
              "name": "judged",
              "type": "bool"
            },
            {
              "internalType": "bool",
              "name": "finalized",
              "type": "bool"
            },
            {
              "internalType": "address",
              "name": "winner",
              "type": "address"
            },
            {
              "internalType": "bytes",
              "name": "aiReview",
              "type": "bytes"
            },
            {
              "internalType": "uint256",
              "name": "winnerIndex",
              "type": "uint256"
            }
          ],
          "internalType": "struct AIJudge.Bounty",
          "name": "",
          "type": "tuple"
        }
      ],
      "stateMutability": "view",
      "type": "function"
    },
    {
      "inputs": [
        {
          "internalType": "uint256",
          "name": "bountyId",
          "type": "uint256"
        },
        {
          "internalType": "address",
          "name": "submitter",
          "type": "address"
        }
      ],
      "name": "getSubmissionBySubmitter",
      "outputs": [
        {
          "components": [
            {
              "internalType": "bytes32",
              "name": "commitment",
              "type": "bytes32"
            },
            {
              "internalType": "string",
              "name": "answer",
              "type": "string"
            },
            {
              "internalType": "bytes32",
              "name": "salt",
              "type": "bytes32"
            },
            {
              "internalType": "bool",
              "name": "revealed",
              "type": "bool"
            },
            {
              "internalType": "bool",
              "name": "valid",
              "type": "bool"
            }
          ],
          "internalType": "struct AIJudge.Submission",
          "name": "",
          "type": "tuple"
        }
      ],
      "stateMutability": "view",
      "type": "function"
    },
    {
      "inputs": [
        {
          "internalType": "uint256",
          "name": "bountyId",
          "type": "uint256"
        }
      ],
      "name": "getSubmitters",
      "outputs": [
        {
          "internalType": "address[]",
          "name": "",
          "type": "address[]"
        }
      ],
      "stateMutability": "view",
      "type": "function"
    },
    {
      "inputs": [
        {
          "internalType": "uint256",
          "name": "bountyId",
          "type": "uint256"
        },
        {
          "internalType": "uint256",
          "name": "index",
          "type": "uint256"
        }
      ],
      "name": "getValidSubmitter",
      "outputs": [
        {
          "internalType": "address",
          "name": "",
          "type": "address"
        }
      ],
      "stateMutability": "view",
      "type": "function"
    },
    {
      "inputs": [
        {
          "internalType": "uint256",
          "name": "bountyId",
          "type": "uint256"
        }
      ],
      "name": "getValidSubmitters",
      "outputs": [
        {
          "internalType": "address[]",
          "name": "",
          "type": "address[]"
        }
      ],
      "stateMutability": "view",
      "type": "function"
    },
    {
      "inputs": [
        {
          "internalType": "uint256",
          "name": "bountyId",
          "type": "uint256"
        },
        {
          "internalType": "bytes",
          "name": "llmInput",
          "type": "bytes"
        }
      ],
      "name": "judgeAll",
      "outputs": [],
      "stateMutability": "nonpayable",
      "type": "function"
    },
    {
      "inputs": [],
      "name": "nextBountyId",
      "outputs": [
        {
          "internalType": "uint256",
          "name": "",
          "type": "uint256"
        }
      ],
      "stateMutability": "view",
      "type": "function"
    },
    {
      "inputs": [
        {
          "internalType": "uint256",
          "name": "bountyId",
          "type": "uint256"
        },
        {
          "internalType": "string",
          "name": "answer",
          "type": "string"
        },
        {
          "internalType": "bytes32",
          "name": "salt",
          "type": "bytes32"
        }
      ],
      "name": "revealAnswer",
      "outputs": [],
      "stateMutability": "nonpayable",
      "type": "function"
    },
    {
      "inputs": [
        {
          "internalType": "uint256",
          "name": "bountyId",
          "type": "uint256"
        },
        {
          "internalType": "bytes32",
          "name": "commitment",
          "type": "bytes32"
        }
      ],
      "name": "submitCommitment",
      "outputs": [],
      "stateMutability": "nonpayable",
      "type": "function"
    },
    {
      "inputs": [
        {
          "internalType": "uint256",
          "name": "bountyId",
          "type": "uint256"
        }
      ],
      "name": "validSubmissionCount",
      "outputs": [
        {
          "internalType": "uint256",
          "name": "",
          "type": "uint256"
        }
      ],
      "stateMutability": "view",
      "type": "function"
    }
  ],
  "bytecode": "0x6080806040523461001a5760015f55611e25908161001f8239f35b5f80fdfe60806040526004361015610011575f80fd5b5f3560e01c80631f3234ed14611848578063280377db146115dc578063339bc9eb146115545780635a7722f1146113585780639c76b3d614611242578063b3e56da6146111a3578063bdc4899f1461110b578063d5198a7114610d95578063d8964ee914610aa0578063dc2f874414610987578063e31202c014610451578063e6a3d9dc146102e6578063ee8c4bbf146100d35763fd14fad4146100b3575f80fd5b346100cf575f3660031901126100cf5760205f54604051908152f35b5f80fd5b346100cf5760203660031901126100cf576004355f6101406040516100f781611a45565b82815260606020820152606060408201528260608201528260808201528260a08201528260c08201528260e08201528261010082015260606101208201520152805f52600160205261015660018060a01b0360405f2054161515611a82565b5f52600160205260405f2060086040519161017083611a45565b80546001600160a01b03168352604051610198816101918160018601611999565b0382611a61565b60208401526040516101b1816101918160028601611999565b6040848101919091526003820154606085015260048201546080850152600582015460a0850152600682015460ff808216151560c087015281851c16151560e086015260101c6001600160a01b031661010085015251610218816101918160078601611999565b610120840152015461014082015260405180916020825260018060a01b0381511660208301526101406102d9610278610262602085015161016060408801526101808701906118b5565b6040850151868203601f190160608801526118b5565b60608401516080860152608084015160a086015260a084015160c086015260c0840151151560e086015260e0840151151561010086015260018060a01b0361010085015116610120860152610120840151601f1986830301848701526118b5565b9101516101608301520390f35b346100cf5760403660031901126100cf5760043560243590805f5260206001815261031e60018060a01b0360405f2054161515611a82565b815f5260018152600460405f2001544210156104195782156103e257815f526004815260405f20335f52815260405f20546103aa577f6459ffc8e2e6aea1e7a6161f54ca96e0b0c83db7191f26ccf5c33e14f7f178c590825f526004815260405f20335f5281528360405f2055825f526002815261039f3360405f20611c85565b6040519384523393a3005b6064906040519062461bcd60e51b825260048201526011602482015270185b1c9958591e4818dbdb5b5a5d1d1959607a1b6044820152fd5b6064906040519062461bcd60e51b82526004820152601060248201526f195b5c1d1e4818dbdb5b5a5d1b595b9d60821b6044820152fd5b6064906040519062461bcd60e51b82526004820152601160248201527031b7b6b6b4ba10383430b9b29037bb32b960791b6044820152fd5b60803660031901126100cf576004356001600160401b0381116100cf5761047c903690600401611934565b6024356001600160401b0381116100cf5761049b903690600401611934565b903415610950574260443511156109155760443560643511156108da576104f0916104e45f54956104cb87611cfb565b5f55604051956104da87611a45565b3387523691611cc5565b60208501523691611cc5565b6040820152346060820152604435608082015260643560a08201525f60c08201525f60e08201525f6101008201526040518060208101106001600160401b036020830111176107e557602081016040525f81526101208201525f19610140820152815f52600160205260405f209060018060a01b038151166bffffffffffffffffffffffff60a01b83541617825560208101519283516001600160401b0381116107e5576105ae816105a56001870154611961565b60018701611c36565b6020601f821160011461086f5781906105df939495965f926107f9575b50508160011b915f199060031b1c19161790565b60018401555b60408201519283516001600160401b0381116107e5576106158161060c6002850154611961565b60028501611c36565b6020601f8211600114610804578190610645939495965f926107f95750508160011b915f199060031b1c19161790565b60028201555b606083015160038201556080830151600482015560a0830151600582015560c083015160068201805460e08601516101008701516001600160b01b031990921660ff941515949094169390931792151560081b61ff00169290921760109290921b62010000600160b01b031691909117905560078101926101208101519384516001600160401b0381116107e5576020956106f0826106ea8554611961565b85611c36565b8690601f831160011461077c5782600895936101409593610725935f926107715750508160011b915f199060031b1c19161790565b90555b0151910155604051348152604435838201526064356040820152817f8b83a690b3b94444ea5b86441c92706a35d253c197d9625f23e8e8d8b0cc722260603393a3604051908152f35b015190508a806105cb565b90601f19831691845f52885f20925f5b8181106107ce5750926001928592600898966101409896106107b6575b505050811b019055610728565b01515f1960f88460031b161c191690558980806107a9565b92938a60018192878601518155019501930161078c565b634e487b7160e01b5f52604160045260245ffd5b0151905086806105cb565b600283015f5260205f20905f5b601f1984168110610857575060019394959683601f1981161061083f575b505050811b01600282015561064b565b01515f1960f88460031b161c1916905585808061082f565b9091602060018192858b015181550193019101610811565b600185015f5260205f20905f5b601f19841681106108c2575060019394959683601f198116106108aa575b505050811b0160018401556105e5565b01515f1960f88460031b161c1916905585808061089a565b9091602060018192858b01518155019301910161087c565b60405162461bcd60e51b81526020600482015260136024820152726261642072657665616c20646561646c696e6560681b6044820152606490fd5b60405162461bcd60e51b815260206004820152601360248201527262616420636f6d6d697420646561646c696e6560681b6044820152606490fd5b60405162461bcd60e51b815260206004820152600f60248201526e1c995dd85c99081c995c5d5a5c9959608a1b6044820152606490fd5b346100cf5760203660031901126100cf576004355f52600160205260405f2060018060a01b03908181541690610a95604051936109d2856109cb8160018701611999565b0386611a61565b604051926109ee846109e78160028501611999565b0385611a61565b60038101549160048201546005830154600684015491610a54600860405196610a2588610a1e8160078501611999565b0389611a61565b015498610a466040519c8d809d6020610160928392815201528d01906118b5565b908b820360408d01526118b5565b9560608a0152608089015260a088015260ff8116151560c088015260ff8160081c16151560e088015260101c166101008601528482036101208601526118b5565b906101408301520390f35b346100cf5760403660031901126100cf576001600160401b03600435602480358381116100cf57610ad5903690600401611934565b835f939293526001602092818452610b1160018060a01b03610afe8160405f2054161515611a82565b875f5283865260405f2054163314611bad565b855f5281845260405f209460058601544210610d5957600686019360ff855416610d2457875f5260038652610b4b60405f20541515611ac1565b8015610cee57610b5f5f9283923691611cc5565b8681519101826108015af194610b73611c07565b9515610caa57600701908551978811610c975750610b9b87610b958354611961565b83611c36565b83601f8811600114610c1957877f26477fddf715c88ee027f99e01412d801f04b1b1d0d575d08cbfa4d61cbbdc9f9798610be9925f91610c0e575b508160011b915f199060031b1c19161790565b90555b60ff19825416179055610c096040519282849384528301906118b5565b0390a2005b90508701518a610bd6565b601f19881690825f52855f20915f5b818110610c8257509189917f26477fddf715c88ee027f99e01412d801f04b1b1d0d575d08cbfa4d61cbbdc9f999a869410610c6a575b5050811b019055610bec565b8801515f1960f88460031b161c191690558980610c5e565b88830151845592850192918701918701610c28565b634e487b7160e01b5f9081526041600452fd5b60405162461bcd60e51b815260048101869052601a818401527f4c4c4d20707265636f6d70696c652063616c6c206661696c65640000000000006044820152606490fd5b60405162461bcd60e51b815260048101879052600f818501526e195b5c1d1e481b1b1b481a5b9c1d5d608a1b6044820152606490fd5b60405162461bcd60e51b815260048101879052600e818501526d185b1c9958591e481a9d5919d95960921b6044820152606490fd5b60405162461bcd60e51b815260048101869052601581840152743932bb32b0b610383430b9b2903737ba1037bb32b960591b6044820152606490fd5b346100cf5760603660031901126100cf576001600160401b03600435602480358381116100cf57610dca903690600401611934565b93604491823591855f52600196602095888752610df460018060a01b0360405f2054161515611a82565b875f5288875260405f20936004885260405f20335f52885260405f2094600481015442106110d3576005015442101561109c57845491821561106a57600386019760ff89541661103557841561100457604051938a8501608081528660a0870152868560c08801375f60c08888010152601f19958a60408201523360608201528d6080820152610e9660c08289601f8c011681010360a0810184520182611a61565b51902003610fd157508a8601948411610c975750610ebe83610eb88654611961565b86611c36565b5f91601f8411600114610f465750827fe305dac8abedfe1dd31af0832e426dbd27ba75bcfac927fab95a5c783afe61c6989796959360029593610f15935f92610f3b5750508160011b915f199060031b1c19161790565b90555b015561010161ffff19825416179055825f526003815261039f3360405f20611c85565b013590508c806105cb565b908392918b941691855f52895f20925f5b818110610fba5750917fe305dac8abedfe1dd31af0832e426dbd27ba75bcfac927fab95a5c783afe61c69a99989795939185600298969410610fa1575b505050811b019055610f18565b01355f19600384901b60f8161c191690558b8080610f94565b8284013585558d9690940193918b01918b01610f57565b6d1a5b9d985b1a59081c995d99585b60921b8a91600e6064946040519462461bcd60e51b86526004860152840152820152fd5b6b32b6b83a3c9030b739bbb2b960a11b8a91600c6064946040519462461bcd60e51b86526004860152840152820152fd5b6f185b1c9958591e481c995d99585b195960821b8a9160106064946040519462461bcd60e51b86526004860152840152820152fd5b886c1b9bc818dbdb5b5a5d1b595b9d609a1b89600d6064946040519462461bcd60e51b86526004860152840152820152fd5b60405162461bcd60e51b815260048101899052601181840152703932bb32b0b610383430b9b29037bb32b960791b81890152606490fd5b60405162461bcd60e51b8152600481018a9052601281850152711c995d99585b081b9bdd081cdd185c9d195960721b818a0152606490fd5b346100cf576020806003193601126100cf57600435805f526001916001815260018060a01b03916111438360405f2054161515611a82565b5f526003815260405f209260405180938386549283815201955f52835f20935f915b83831061118c576111888761117c818b0382611a61565b604051918291826118da565b0390f35b855481168852968101969484019491840191611165565b346100cf576111b13661191e565b5f8281526001602052604090205490916001600160a01b03916111d79083161515611a82565b805f52600360205260405f205483101561121157602092611201915f526003845260405f20611b84565b90549060031b1c16604051908152f35b60405162461bcd60e51b81526020600482015260096024820152680c4c2c840d2dcc8caf60bb1b6044820152606490fd5b346100cf5760403660031901126100cf576001600160a01b0360243581811690600435908290036100cf576112ae6040519361127d85611a2a565b5f85525f60806020966060888201528260408201528260608201520152825f526001855260405f2054161515611a82565b5f526004825260405f20905f52815260405f20604051906112ce82611a2a565b805482526040516112e6816101918160018601611999565b83830190815260036002830154926040850193845201549061133d606085019160ff84161515835260ff608087019460081c161515845260405196879681885251908701525160a0604087015260c08601906118b5565b92516060850152511515608084015251151560a08301520390f35b346100cf576113663661191e565b90805f526020916001835260018060a01b036113898160405f2054161515611a82565b825f52600184526113a18160405f2054163314611bad565b825f526001845260405f20936003815260405f2091600686019081549360ff8516156115225760ff8560081c166114e95780548610156114b15760085f93926113eb888094611b84565b905460038c81018054610100600160b01b0319909b169390911b9190911c92909216601081901b62010000600160b01b0316919091176101001790945592980155555f80808085895af161143d611c07565b501561147457916040917f7b73d5867b9d93f2fde9600c065386949b5325070cd76f2725d84d21758e0f82938351928352820152a3005b6064906040519062461bcd60e51b8252600482015260166024820152751c995dd85c99081d1c985b9cd9995c8819985a5b195960521b6044820152fd5b60405162461bcd60e51b815260048101859052601060248201526f0c4c2c840eed2dcdccae440d2dcc8caf60831b6044820152606490fd5b60405162461bcd60e51b8152600481018590526011602482015270185b1c9958591e48199a5b985b1a5e9959607a1b6044820152606490fd5b60405162461bcd60e51b815260048101859052600a6024820152691b9bdd081a9d5919d95960b21b6044820152606490fd5b346100cf576020806003193601126100cf57600435805f526001916001815260018060a01b039161158c8360405f2054161515611a82565b5f526002815260405f209260405180938386549283815201955f52835f20935f915b8383106115c5576111888761117c818b0382611a61565b8554811688529681019694840194918401916115ae565b346100cf576020806003193601126100cf5760043590815f52600180825260018060a01b03926116138460405f2054161515611a82565b805f526003936003845260405f2080549161162f831515611ac1565b835f528486526116e3611707600f60405f206040519384917f596f7520617265206a756467696e6720616e20414920626f756e74792e2050698c8401527f636b207468652062657374207375626d697373696f6e20627920696e6465782e604084015261050560f11b60608401526d02137bab73a3c903a34ba36329d160951b60628401526002600e6116c88d60708701908501611b04565b6c52232b9b1b934b83a34b7b71d160951b8152019101611b04565b6e050529bab136b4b9b9b4b7b7399d0560891b815203601019810184520182611a61565b965f945b8486106117945788886117806052604051846117308296518092878086019101611894565b81017f0a52657475726e207468652077696e6e696e6720696e64657820616e64206120858201527139b437b93a1032bc383630b730ba34b7b71760711b6040820152036032810185520183611a61565b6111886040519282849384528301906118b5565b909192939496958661183a82809b855f52600484528b886117b960405f20928c611b84565b9054908a1b1c165f5284526118248c8360236117d860405f2093611d1d565b976102e960f51b60405199876117f78c9951809286808d019101611894565b8801605b60f81b8482015261181760219483519384918785019101611894565b0191820152019101611b04565b600560f91b815203601e19810184520182611a61565b98969701949392919061170b565b346100cf5760203660031901126100cf576004355f8181526001602052604090205461187e906001600160a01b03161515611a82565b5f526003602052602060405f2054604051908152f35b5f5b8381106118a55750505f910152565b8181015183820152602001611896565b906020916118ce81518092818552858086019101611894565b601f01601f1916010190565b60209060206040818301928281528551809452019301915f5b828110611901575050505090565b83516001600160a01b0316855293810193928101926001016118f3565b60409060031901126100cf576004359060243590565b9181601f840112156100cf578235916001600160401b0383116100cf57602083818601950101116100cf57565b90600182811c9216801561198f575b602083101461197b57565b634e487b7160e01b5f52602260045260245ffd5b91607f1691611970565b80545f93926119a782611961565b918282526020936001916001811690815f14611a0b57506001146119cd575b5050505050565b90939495505f92919252835f2092845f945b8386106119f757505050500101905f808080806119c6565b8054858701830152940193859082016119df565b60ff19168685015250505090151560051b010191505f808080806119c6565b60a081019081106001600160401b038211176107e557604052565b61016081019081106001600160401b038211176107e557604052565b90601f801991011681019081106001600160401b038211176107e557604052565b15611a8957565b60405162461bcd60e51b815260206004820152601060248201526f189bdd5b9d1e481b9bdd08199bdd5b9960821b6044820152606490fd5b15611ac857565b60405162461bcd60e51b81526020600482015260146024820152736e6f2076616c6964207375626d697373696f6e7360601b6044820152606490fd5b5f92918154611b1281611961565b92600191808316908115611b695750600114611b2f575b50505050565b9091929394505f5260209060205f20905f915b858310611b58575050505001905f808080611b29565b805485840152918301918101611b42565b60ff191684525050508115159091020191505f808080611b29565b8054821015611b99575f5260205f2001905f90565b634e487b7160e01b5f52603260045260245ffd5b15611bb457565b60405162461bcd60e51b815260206004820152601060248201526f3737ba103137bab73a3c9037bbb732b960811b6044820152606490fd5b6001600160401b0381116107e557601f01601f191660200190565b3d15611c31573d90611c1882611bec565b91611c266040519384611a61565b82523d5f602084013e565b606090565b601f8211611c4357505050565b5f5260205f20906020601f840160051c83019310611c7b575b601f0160051c01905b818110611c70575050565b5f8155600101611c65565b9091508190611c5c565b8054680100000000000000008110156107e557611ca791600182018155611b84565b60018060a09493941b038084549260031b9316831b921b1916179055565b929192611cd182611bec565b91611cdf6040519384611a61565b8294818452818301116100cf578281602093845f960137010152565b5f198114611d095760010190565b634e487b7160e01b5f52601160045260245ffd5b8015611dc1575f81805b611dad5750611d3581611bec565b90611d436040519283611a61565b808252601f19611d5282611bec565b013660208401375b80928015611da6575f198201918211611d09578193600a926030908484068201809211611d095785511115611b995760f81b6001600160f81b0319165f1a908401601f01530491611d5a565b5050905090565b90611db9600a91611cfb565b910480611d27565b50604051604081018181106001600160401b038211176107e55760405260018152600360fc1b60208201529056fea2646970667358221220f04ac91fc6e2dbef9b6752022ec1eb40ca75a50674a1bbd605d18cbb103d1d9b64736f6c63430008180033",
  "linkReferences": {},
  "deployedLinkReferences": {},
  "immutableReferences": {},
  "inputSourceName": "project/contracts/AIJudge.sol",
  "buildInfoId": "solc-0_8_24-2caff6789757ba365754b9c2666f4939422b5ecf"
}